{"abi":[{"type":"function","name":"buy","inputs":[{"name":"number","type":"uint256","internalType":"uint256"}],"outputs":[],"stateMutability":"payable"},{"type":"function","name":"claim","inputs":[],"outputs":[],"stateMutability":"nonpayable"},{"type":"function","name":"draw","inputs":[],"outputs":[],"stateMutability":"nonpayable"},{"type":"function","name":"participant","inputs":[{"name":"","type":"uint256","internalType":"uint256"},{"name":"","type":"address","internalType":"address"}],"outputs":[{"name":"","type":"bool","internalType":"bool"}],"stateMutability":"view"},{"type":"function","name":"picked_history","inputs":[{"name":"","type":"uint256","internalType":"uint256"},{"name":"","type":"uint256","internalType":"uint256"},{"name":"","type":"uint256","internalType":"uint256"}],"outputs":[{"name":"","type":"address","internalType":"address"}],"stateMutability":"view"},{"type":"function","name":"picked_people","inputs":[{"name":"","type":"uint256","internalType":"uint256"},{"name":"","type":"uint256","internalType":"uint256"}],"outputs":[{"name":"","type":"uint256","internalType":"uint256"}],"stateMutability":"view"},{"type":"function","name":"to_give","inputs":[{"name":"","type":"address","internalType":"address"}],"outputs":[{"name":"","type":"uint256","internalType":"uint256"}],"stateMutability":"view"},{"type":"function","name":"winningNumber","inputs":[],"outputs":[{"name":"","type":"uint16","internalType":"uint16"}],"stateMutability":"view"}],"bytecode":{"object":"0x6080604052348015600e575f5ffd5b506109168061001c5f395ff3fe608060405260043610610079575f3560e01c8063b8612eab1161004c578063b8612eab14610110578063cb1369251461013f578063d96a094a14610178578063ee5fb1a21461018b575f5ffd5b80630eecae211461007d5780634664611e146100935780634e71d92d146100c5578063625788d0146100d9575b5f5ffd5b348015610088575f5ffd5b506100916101aa565b005b34801561009e575f5ffd5b506004546100ad9061ffff1681565b60405161ffff90911681526020015b60405180910390f35b3480156100d0575f5ffd5b506100916103c4565b3480156100e4575f5ffd5b506100f86100f33660046107a3565b61049a565b6040516001600160a01b0390911681526020016100bc565b34801561011b575f5ffd5b5061012f61012a3660046107e7565b6104e4565b60405190151581526020016100bc565b34801561014a575f5ffd5b5061016a610159366004610811565b60016020525f908152604090205481565b6040519081526020016100bc565b610091610186366004610831565b610510565b348015610196575f5ffd5b5061016a6101a5366004610848565b610778565b42600754620151806101bc919061087c565b111561021e5760405162461bcd60e51b815260206004820152602660248201527f64726177206166746572203234686f757273207768656e207068617365207374604482015265030b93a32b2160d51b60648201526084015b60405180910390fd5b6006546001146102605760405162461bcd60e51b815260206004820152600d60248201526c6d75737420696e20706861736560981b6044820152606401610215565b604080514260208201520160408051808303601f1901815291905280516020909101206004805461ffff191661ffff909216919091179055600554600380545f929081106102b0576102b0610895565b5f918252602080832060045461ffff16845290910190526040902054905080156103a8575f6102df82476108a9565b90505f6002600554815481106102f7576102f7610895565b5f918252602080832060045461ffff1684529091019052604081205491505b818110156103a4578260015f60026005548154811061033757610337610895565b5f918252602080832060045461ffff16845290910190526040902080548590811061036457610364610895565b5f9182526020808320909101546001600160a01b031683528201929092526040018120805490919061039790849061087c565b9091555050600101610316565b5050505b5f60068190555060055f81546103bd906108c8565b9091555050565b6007546103d4906201518061087c565b4210156104235760405162461bcd60e51b815260206004820152601960248201527f43616e7420636c61696d207768696c6520696e207068617365000000000000006044820152606401610215565b335f908152600160205260409020541561049857335f81815260016020526040808220549051909181818185875af1925050503d805f8114610480576040519150601f19603f3d011682016040523d82523d5f602084013e610485565b606091505b5050335f90815260016020526040812055505b565b600283815481106104a9575f80fd5b905f5260205f2001602052815f5260405f2081815481106104c8575f80fd5b5f918252602090912001546001600160a01b0316925083915050565b5f82815481106104f2575f80fd5b5f91825260208083209091019052908152604090205460ff16905081565b3467016345785d8a0000146105675760405162461bcd60e51b815260206004820152601a60248201527f596f752063616e20627579206f6e6c7920302e312065687465720000000000006044820152606401610215565b6006545f0361059957600160068190555f805482018155426007556002805483019055600380549092018255526105e0565b6007546105a9906201518061087c565b42106105e05760405162461bcd60e51b81526020600482015260066024820152656e6f6e6f6e6f60d01b6044820152606401610215565b5f600554815481106105f4576105f4610895565b5f91825260208083203384529091019052604090205460ff161561064c5760405162461bcd60e51b815260206004820152600f60248201526e43616e74206475706c69636174652160881b6044820152606401610215565b60015f6005548154811061066257610662610895565b5f918252602080832033845291909101905260409020805460ff191691151591909117905560055460028054909190811061069f5761069f610895565b5f91825260208083208484529091019052604081205490036106ef576002600554815481106106d0576106d0610895565b5f91825260208083208484529091019052604081208054600101815590525b60036005548154811061070457610704610895565b905f5260205f20015f8281526020019081526020015f205f8154610727906108c8565b9190508190555060026005548154811061074357610743610895565b5f9182526020808320938352920182526040812080546001810182559082529190200180546001600160a01b03191633179055565b60038281548110610787575f80fd5b905f5260205f2001602052805f5260405f205f91509150505481565b5f5f5f606084860312156107b5575f5ffd5b505081359360208301359350604090920135919050565b80356001600160a01b03811681146107e2575f5ffd5b919050565b5f5f604083850312156107f8575f5ffd5b82359150610808602084016107cc565b90509250929050565b5f60208284031215610821575f5ffd5b61082a826107cc565b9392505050565b5f60208284031215610841575f5ffd5b5035919050565b5f5f60408385031215610859575f5ffd5b50508035926020909101359150565b634e487b7160e01b5f52601160045260245ffd5b8082018082111561088f5761088f610868565b92915050565b634e487b7160e01b5f52603260045260245ffd5b5f826108c357634e487b7160e01b5f52601260045260245ffd5b500490565b5f600182016108d9576108d9610868565b506001019056fea2646970667358221220dd4359aaaff4834469e666d82eaf1ae73687a2345520bffdc35f9381ad0ddaad64736f6c634300081c0033","linkReferences":{}},"methodIdentifiers":{"buy(uint256)":"d96a094a","claim()":"4e71d92d","draw()":"0eecae21","participant(uint256,address)":"b8612eab","picked_history(uint256,uint256,uint256)":"625788d0","picked_people(uint256,uint256)":"ee5fb1a2","to_give(address)":"cb136925","winningNumber()":"4664611e"},"id":23}